{
  "_format": "hh-sol-artifact-1",
  "contractName": "Bank",
  "sourceName": "contracts/Bank.sol",
  "abi": [
    {
      "inputs": [],
      "stateMutability": "nonpayable",
      "type": "constructor"
    },
    {
      "inputs": [
        {
          "internalType": "address",
          "name": "",
          "type": "address"
        },
        {
          "internalType": "bytes32",
          "name": "",
          "type": "bytes32"
        }
      ],
      "name": "balances",
      "outputs": [
        {
          "internalType": "uint256",
          "name": "",
          "type": "uint256"
        }
      ],
      "stateMutability": "view",
      "type": "function"
    },
    {
      "inputs": [
        {
          "internalType": "uint256",
          "name": "amount",
          "type": "uint256"
        },
        {
          "internalType": "bytes32",
          "name": "symbol",
          "type": "bytes32"
        }
      ],
      "name": "depositTokens",
      "outputs": [],
      "stateMutability": "nonpayable",
      "type": "function"
    },
    {
      "inputs": [
        {
          "internalType": "bytes32",
          "name": "symbol",
          "type": "bytes32"
        }
      ],
      "name": "getTokenBalance",
      "outputs": [
        {
          "internalType": "uint256",
          "name": "",
          "type": "uint256"
        }
      ],
      "stateMutability": "view",
      "type": "function"
    },
    {
      "inputs": [],
      "name": "getWhitelistedSymbols",
      "outputs": [
        {
          "internalType": "bytes32[]",
          "name": "",
          "type": "bytes32[]"
        }
      ],
      "stateMutability": "view",
      "type": "function"
    },
    {
      "inputs": [
        {
          "internalType": "bytes32",
          "name": "symbol",
          "type": "bytes32"
        }
      ],
      "name": "getWhitelistedTokenAddress",
      "outputs": [
        {
          "internalType": "address",
          "name": "",
          "type": "address"
        }
      ],
      "stateMutability": "view",
      "type": "function"
    },
    {
      "inputs": [],
      "name": "owner",
      "outputs": [
        {
          "internalType": "address",
          "name": "",
          "type": "address"
        }
      ],
      "stateMutability": "view",
      "type": "function"
    },
    {
      "inputs": [
        {
          "internalType": "bytes32",
          "name": "symbol",
          "type": "bytes32"
        },
        {
          "internalType": "address",
          "name": "tokenAddress",
          "type": "address"
        }
      ],
      "name": "whitelistToken",
      "outputs": [],
      "stateMutability": "nonpayable",
      "type": "function"
    },
    {
      "inputs": [
        {
          "internalType": "uint256",
          "name": "",
          "type": "uint256"
        }
      ],
      "name": "whitelistedSymbols",
      "outputs": [
        {
          "internalType": "bytes32",
          "name": "",
          "type": "bytes32"
        }
      ],
      "stateMutability": "view",
      "type": "function"
    },
    {
      "inputs": [
        {
          "internalType": "bytes32",
          "name": "",
          "type": "bytes32"
        }
      ],
      "name": "whitelistedTokens",
      "outputs": [
        {
          "internalType": "address",
          "name": "",
          "type": "address"
        }
      ],
      "stateMutability": "view",
      "type": "function"
    },
    {
      "inputs": [
        {
          "internalType": "uint256",
          "name": "amount",
          "type": "uint256"
        }
      ],
      "name": "withdrawEther",
      "outputs": [],
      "stateMutability": "nonpayable",
      "type": "function"
    },
    {
      "inputs": [
        {
          "internalType": "uint256",
          "name": "amount",
          "type": "uint256"
        },
        {
          "internalType": "bytes32",
          "name": "symbol",
          "type": "bytes32"
        }
      ],
      "name": "withdrawTokens",
      "outputs": [],
      "stateMutability": "nonpayable",
      "type": "function"
    },
    {
      "stateMutability": "payable",
      "type": "receive"
    }
  ],
  "bytecode": "0x608060405234801561001057600080fd5b50336000806101000a81548173ffffffffffffffffffffffffffffffffffffffff021916908373ffffffffffffffffffffffffffffffffffffffff16021790555061102e806100606000396000f3fe6080604052600436106100a05760003560e01c806388db6ac61161006457806388db6ac61461022a5780638da5cb5b146102675780638f97994b14610292578063aa3d9a15146102bb578063d15b223e146102f8578063e8812788146103215761012e565b8063069fdaae146101335780631f14df691461015c5780633bed33ce146101995780634762b976146101c25780634b1e4aa5146101ff5761012e565b3661012e5734600360003373ffffffffffffffffffffffffffffffffffffffff1673ffffffffffffffffffffffffffffffffffffffff16815260200190815260200160002060007f4574680000000000000000000000000000000000000000000000000000000000815260200190815260200160002060008282546101259190610a5d565b92505081905550005b600080fd5b34801561013f57600080fd5b5061015a60048036038101906101559190610b4c565b61035e565b005b34801561016857600080fd5b50610183600480360381019061017e9190610b8c565b61046b565b6040516101909190610bdb565b60405180910390f35b3480156101a557600080fd5b506101c060048036038101906101bb9190610c22565b610490565b005b3480156101ce57600080fd5b506101e960048036038101906101e49190610c22565b6105cd565b6040516101f69190610c5e565b60405180910390f35b34801561020b57600080fd5b506102146105f1565b6040516102219190610d37565b60405180910390f35b34801561023657600080fd5b50610251600480360381019061024c9190610d59565b610649565b60405161025e9190610bdb565b60405180910390f35b34801561027357600080fd5b5061027c6106a3565b6040516102899190610d95565b60405180910390f35b34801561029e57600080fd5b506102b960048036038101906102b49190610db0565b6106c7565b005b3480156102c757600080fd5b506102e260048036038101906102dd9190610d59565b610886565b6040516102ef9190610d95565b60405180910390f35b34801561030457600080fd5b5061031f600480360381019061031a9190610db0565b6108b9565b005b34801561032d57600080fd5b5061034860048036038101906103439190610d59565b6109e7565b6040516103559190610d95565b60405180910390f35b60008054906101000a900473ffffffffffffffffffffffffffffffffffffffff1673ffffffffffffffffffffffffffffffffffffffff163373ffffffffffffffffffffffffffffffffffffffff16146103ec576040517f08c379a00000000000000000000000000000000000000000000000000000000081526004016103e390610e73565b60405180910390fd5b6001829080600181540180825580915050600190039060005260206000200160009091909190915055806002600084815260200190815260200160002060006101000a81548173ffffffffffffffffffffffffffffffffffffffff021916908373ffffffffffffffffffffffffffffffffffffffff1602179055505050565b6003602052816000526040600020602052806000526040600020600091509150505481565b80600360003373ffffffffffffffffffffffffffffffffffffffff1673ffffffffffffffffffffffffffffffffffffffff16815260200190815260200160002060007f45746800000000000000000000000000000000000000000000000000000000008152602001908152602001600020541015610543576040517f08c379a000000000000000000000000000000000000000000000000000000000815260040161053a90610edf565b60405180910390fd5b80600360003373ffffffffffffffffffffffffffffffffffffffff1673ffffffffffffffffffffffffffffffffffffffff16815260200190815260200160002060007f4574680000000000000000000000000000000000000000000000000000000000815260200190815260200160002060008282546105c39190610eff565b9250508190555050565b600181815481106105dd57600080fd5b906000526020600020016000915090505481565b6060600180548060200260200160405190810160405280929190818152602001828054801561063f57602002820191906000526020600020905b81548152602001906001019080831161062b575b5050505050905090565b6000600360003373ffffffffffffffffffffffffffffffffffffffff1673ffffffffffffffffffffffffffffffffffffffff1681526020019081526020016000206000838152602001908152602001600020549050919050565b60008054906101000a900473ffffffffffffffffffffffffffffffffffffffff1681565b81600360003373ffffffffffffffffffffffffffffffffffffffff1673ffffffffffffffffffffffffffffffffffffffff168152602001908152602001600020600083815260200190815260200160002054101561075a576040517f08c379a000000000000000000000000000000000000000000000000000000000815260040161075190610edf565b60405180910390fd5b81600360003373ffffffffffffffffffffffffffffffffffffffff1673ffffffffffffffffffffffffffffffffffffffff168152602001908152602001600020600083815260200190815260200160002060008282546107ba9190610eff565b925050819055506002600082815260200190815260200160002060009054906101000a900473ffffffffffffffffffffffffffffffffffffffff1673ffffffffffffffffffffffffffffffffffffffff1663a9059cbb33846040518363ffffffff1660e01b815260040161082f929190610f33565b602060405180830381600087803b15801561084957600080fd5b505af115801561085d573d6000803e3d6000fd5b505050506040513d601f19601f820116820180604052508101906108819190610f94565b505050565b60026020528060005260406000206000915054906101000a900473ffffffffffffffffffffffffffffffffffffffff1681565b81600360003373ffffffffffffffffffffffffffffffffffffffff1673ffffffffffffffffffffffffffffffffffffffff168152602001908152602001600020600083815260200190815260200160002060008282546109199190610a5d565b925050819055506002600082815260200190815260200160002060009054906101000a900473ffffffffffffffffffffffffffffffffffffffff1673ffffffffffffffffffffffffffffffffffffffff166323b872dd3330856040518463ffffffff1660e01b815260040161099093929190610fc1565b602060405180830381600087803b1580156109aa57600080fd5b505af11580156109be573d6000803e3d6000fd5b505050506040513d601f19601f820116820180604052508101906109e29190610f94565b505050565b60006002600083815260200190815260200160002060009054906101000a900473ffffffffffffffffffffffffffffffffffffffff169050919050565b6000819050919050565b7f4e487b7100000000000000000000000000000000000000000000000000000000600052601160045260246000fd5b6000610a6882610a24565b9150610a7383610a24565b9250827fffffffffffffffffffffffffffffffffffffffffffffffffffffffffffffffff03821115610aa857610aa7610a2e565b5b828201905092915050565b600080fd5b6000819050919050565b610acb81610ab8565b8114610ad657600080fd5b50565b600081359050610ae881610ac2565b92915050565b600073ffffffffffffffffffffffffffffffffffffffff82169050919050565b6000610b1982610aee565b9050919050565b610b2981610b0e565b8114610b3457600080fd5b50565b600081359050610b4681610b20565b92915050565b60008060408385031215610b6357610b62610ab3565b5b6000610b7185828601610ad9565b9250506020610b8285828601610b37565b9150509250929050565b60008060408385031215610ba357610ba2610ab3565b5b6000610bb185828601610b37565b9250506020610bc285828601610ad9565b9150509250929050565b610bd581610a24565b82525050565b6000602082019050610bf06000830184610bcc565b92915050565b610bff81610a24565b8114610c0a57600080fd5b50565b600081359050610c1c81610bf6565b92915050565b600060208284031215610c3857610c37610ab3565b5b6000610c4684828501610c0d565b91505092915050565b610c5881610ab8565b82525050565b6000602082019050610c736000830184610c4f565b92915050565b600081519050919050565b600082825260208201905092915050565b6000819050602082019050919050565b610cae81610ab8565b82525050565b6000610cc08383610ca5565b60208301905092915050565b6000602082019050919050565b6000610ce482610c79565b610cee8185610c84565b9350610cf983610c95565b8060005b83811015610d2a578151610d118882610cb4565b9750610d1c83610ccc565b925050600181019050610cfd565b5085935050505092915050565b60006020820190508181036000830152610d518184610cd9565b905092915050565b600060208284031215610d6f57610d6e610ab3565b5b6000610d7d84828501610ad9565b91505092915050565b610d8f81610b0e565b82525050565b6000602082019050610daa6000830184610d86565b92915050565b60008060408385031215610dc757610dc6610ab3565b5b6000610dd585828601610c0d565b9250506020610de685828601610ad9565b9150509250929050565b600082825260208201905092915050565b7f596f7520617265206e6f7420617574686f72697a6564202c204f6e6c79206f7760008201527f6e65722063616e20616363657373206974000000000000000000000000000000602082015250565b6000610e5d603183610df0565b9150610e6882610e01565b604082019050919050565b60006020820190508181036000830152610e8c81610e50565b9050919050565b7f496e73756666696369656e742066756e64730000000000000000000000000000600082015250565b6000610ec9601283610df0565b9150610ed482610e93565b602082019050919050565b60006020820190508181036000830152610ef881610ebc565b9050919050565b6000610f0a82610a24565b9150610f1583610a24565b925082821015610f2857610f27610a2e565b5b828203905092915050565b6000604082019050610f486000830185610d86565b610f556020830184610bcc565b9392505050565b60008115159050919050565b610f7181610f5c565b8114610f7c57600080fd5b50565b600081519050610f8e81610f68565b92915050565b600060208284031215610faa57610fa9610ab3565b5b6000610fb884828501610f7f565b91505092915050565b6000606082019050610fd66000830186610d86565b610fe36020830185610d86565b610ff06040830184610bcc565b94935050505056fea2646970667358221220db4ef595ac979c0e9942881f38b3761a150193b6f7acc587fe142d840d38632f64736f6c63430008090033",
  "linkReferences": {},
  "deployedLinkReferences": {}
}